{
  "_format": "hh-sol-artifact-1",
  "contractName": "IdeaRegistry",
  "sourceName": "contracts/newpro.sol",
  "abi": [
    {
      "inputs": [
        {
          "internalType": "address payable",
          "name": "_owner2",
          "type": "address"
        }
      ],
      "stateMutability": "nonpayable",
      "type": "constructor"
    },
    {
      "inputs": [
        {
          "internalType": "uint256",
          "name": "index",
          "type": "uint256"
        }
      ],
      "name": "getIdea",
      "outputs": [
        {
          "internalType": "string",
          "name": "title",
          "type": "string"
        },
        {
          "internalType": "string",
          "name": "description",
          "type": "string"
        },
        {
          "internalType": "address",
          "name": "registeredBy",
          "type": "address"
        },
        {
          "internalType": "uint256",
          "name": "paidAmount",
          "type": "uint256"
        }
      ],
      "stateMutability": "view",
      "type": "function"
    },
    {
      "inputs": [],
      "name": "getOwnerBalances",
      "outputs": [
        {
          "internalType": "uint256",
          "name": "balanceOwner1",
          "type": "uint256"
        },
        {
          "internalType": "uint256",
          "name": "balanceOwner2",
          "type": "uint256"
        }
      ],
      "stateMutability": "view",
      "type": "function"
    },
    {
      "inputs": [
        {
          "internalType": "uint256",
          "name": "",
          "type": "uint256"
        }
      ],
      "name": "ipList",
      "outputs": [
        {
          "internalType": "string",
          "name": "ideaTitle",
          "type": "string"
        },
        {
          "internalType": "string",
          "name": "ideaDescription",
          "type": "string"
        },
        {
          "internalType": "address",
          "name": "registeredBy",
          "type": "address"
        },
        {
          "internalType": "uint256",
          "name": "paidAmount",
          "type": "uint256"
        }
      ],
      "stateMutability": "view",
      "type": "function"
    },
    {
      "inputs": [],
      "name": "owner1",
      "outputs": [
        {
          "internalType": "address payable",
          "name": "",
          "type": "address"
        }
      ],
      "stateMutability": "view",
      "type": "function"
    },
    {
      "inputs": [],
      "name": "owner2",
      "outputs": [
        {
          "internalType": "address payable",
          "name": "",
          "type": "address"
        }
      ],
      "stateMutability": "view",
      "type": "function"
    },
    {
      "inputs": [
        {
          "internalType": "string",
          "name": "ideaTitle",
          "type": "string"
        },
        {
          "internalType": "string",
          "name": "ideaDescription",
          "type": "string"
        }
      ],
      "name": "registerIdea",
      "outputs": [
        {
          "internalType": "uint256",
          "name": "",
          "type": "uint256"
        }
      ],
      "stateMutability": "payable",
      "type": "function"
    }
  ],
  "bytecode": "0x608060405234801561001057600080fd5b506040516111683803806111688339818101604052810190610032919061011d565b33600160006101000a81548173ffffffffffffffffffffffffffffffffffffffff021916908373ffffffffffffffffffffffffffffffffffffffff16021790555080600260006101000a81548173ffffffffffffffffffffffffffffffffffffffff021916908373ffffffffffffffffffffffffffffffffffffffff1602179055505061014a565b600080fd5b600073ffffffffffffffffffffffffffffffffffffffff82169050919050565b60006100ea826100bf565b9050919050565b6100fa816100df565b811461010557600080fd5b50565b600081519050610117816100f1565b92915050565b600060208284031215610133576101326100ba565b5b600061014184828501610108565b91505092915050565b61100f806101596000396000f3fe6080604052600436106100555760003560e01c806321b403e81461005a5780632ec7f1441461008657806344de6b2f146100b65780634e0c2095146100f657806352709725146101365780637368891414610161575b600080fd5b34801561006657600080fd5b5061006f61018c565b60405161007d9291906107ad565b60405180910390f35b6100a0600480360381019061009b9190610930565b61020b565b6040516100ad91906109a8565b60405180910390f35b3480156100c257600080fd5b506100dd60048036038101906100d891906109ef565b6103b3565b6040516100ed9493929190610adc565b60405180910390f35b34801561010257600080fd5b5061011d600480360381019061011891906109ef565b6105d8565b60405161012d9493929190610adc565b60405180910390f35b34801561014257600080fd5b5061014b610748565b6040516101589190610b50565b60405180910390f35b34801561016d57600080fd5b5061017661076e565b6040516101839190610b50565b60405180910390f35b600080600160009054906101000a900473ffffffffffffffffffffffffffffffffffffffff1673ffffffffffffffffffffffffffffffffffffffff1631600260009054906101000a900473ffffffffffffffffffffffffffffffffffffffff1673ffffffffffffffffffffffffffffffffffffffff1631915091509091565b600080341161024f576040517f08c379a000000000000000000000000000000000000000000000000000000000815260040161024690610bdd565b60405180910390fd5b600160009054906101000a900473ffffffffffffffffffffffffffffffffffffffff1673ffffffffffffffffffffffffffffffffffffffff166108fc349081150290604051600060405180830381858888f193505050501580156102b7573d6000803e3d6000fd5b50600060405180608001604052808581526020018481526020013373ffffffffffffffffffffffffffffffffffffffff168152602001348152509080600181540180825580915050600190039060005260206000209060040201600090919091909150600082015181600001908161032f9190610e09565b5060208201518160010190816103459190610e09565b5060408201518160020160006101000a81548173ffffffffffffffffffffffffffffffffffffffff021916908373ffffffffffffffffffffffffffffffffffffffff16021790555060608201518160030155505060016000805490506103ab9190610f0a565b905092915050565b6060806000806000805490508510610400576040517f08c379a00000000000000000000000000000000000000000000000000000000081526004016103f790610f8a565b60405180910390fd5b600080868154811061041557610414610faa565b5b906000526020600020906004020160405180608001604052908160008201805461043e90610c2c565b80601f016020809104026020016040519081016040528092919081815260200182805461046a90610c2c565b80156104b75780601f1061048c576101008083540402835291602001916104b7565b820191906000526020600020905b81548152906001019060200180831161049a57829003601f168201915b505050505081526020016001820180546104d090610c2c565b80601f01602080910402602001604051908101604052809291908181526020018280546104fc90610c2c565b80156105495780601f1061051e57610100808354040283529160200191610549565b820191906000526020600020905b81548152906001019060200180831161052c57829003601f168201915b505050505081526020016002820160009054906101000a900473ffffffffffffffffffffffffffffffffffffffff1673ffffffffffffffffffffffffffffffffffffffff1673ffffffffffffffffffffffffffffffffffffffff168152602001600382015481525050905080600001518160200151826040015183606001519450945094509450509193509193565b600081815481106105e857600080fd5b906000526020600020906004020160009150905080600001805461060b90610c2c565b80601f016020809104026020016040519081016040528092919081815260200182805461063790610c2c565b80156106845780601f1061065957610100808354040283529160200191610684565b820191906000526020600020905b81548152906001019060200180831161066757829003601f168201915b50505050509080600101805461069990610c2c565b80601f01602080910402602001604051908101604052809291908181526020018280546106c590610c2c565b80156107125780601f106106e757610100808354040283529160200191610712565b820191906000526020600020905b8154815290600101906020018083116106f557829003601f168201915b5050505050908060020160009054906101000a900473ffffffffffffffffffffffffffffffffffffffff16908060030154905084565b600260009054906101000a900473ffffffffffffffffffffffffffffffffffffffff1681565b600160009054906101000a900473ffffffffffffffffffffffffffffffffffffffff1681565b6000819050919050565b6107a781610794565b82525050565b60006040820190506107c2600083018561079e565b6107cf602083018461079e565b9392505050565b6000604051905090565b600080fd5b600080fd5b600080fd5b600080fd5b6000601f19601f8301169050919050565b7f4e487b7100000000000000000000000000000000000000000000000000000000600052604160045260246000fd5b61083d826107f4565b810181811067ffffffffffffffff8211171561085c5761085b610805565b5b80604052505050565b600061086f6107d6565b905061087b8282610834565b919050565b600067ffffffffffffffff82111561089b5761089a610805565b5b6108a4826107f4565b9050602081019050919050565b82818337600083830152505050565b60006108d36108ce84610880565b610865565b9050828152602081018484840111156108ef576108ee6107ef565b5b6108fa8482856108b1565b509392505050565b600082601f830112610917576109166107ea565b5b81356109278482602086016108c0565b91505092915050565b60008060408385031215610947576109466107e0565b5b600083013567ffffffffffffffff811115610965576109646107e5565b5b61097185828601610902565b925050602083013567ffffffffffffffff811115610992576109916107e5565b5b61099e85828601610902565b9150509250929050565b60006020820190506109bd600083018461079e565b92915050565b6109cc81610794565b81146109d757600080fd5b50565b6000813590506109e9816109c3565b92915050565b600060208284031215610a0557610a046107e0565b5b6000610a13848285016109da565b91505092915050565b600081519050919050565b600082825260208201905092915050565b60005b83811015610a56578082015181840152602081019050610a3b565b60008484015250505050565b6000610a6d82610a1c565b610a778185610a27565b9350610a87818560208601610a38565b610a90816107f4565b840191505092915050565b600073ffffffffffffffffffffffffffffffffffffffff82169050919050565b6000610ac682610a9b565b9050919050565b610ad681610abb565b82525050565b60006080820190508181036000830152610af68187610a62565b90508181036020830152610b0a8186610a62565b9050610b196040830185610acd565b610b26606083018461079e565b95945050505050565b6000610b3a82610a9b565b9050919050565b610b4a81610b2f565b82525050565b6000602082019050610b656000830184610b41565b92915050565b7f5061796d656e7420726571756972656420746f2072656769737465722069646560008201527f6100000000000000000000000000000000000000000000000000000000000000602082015250565b6000610bc7602183610a27565b9150610bd282610b6b565b604082019050919050565b60006020820190508181036000830152610bf681610bba565b9050919050565b7f4e487b7100000000000000000000000000000000000000000000000000000000600052602260045260246000fd5b60006002820490506001821680610c4457607f821691505b602082108103610c5757610c56610bfd565b5b50919050565b60008190508160005260206000209050919050565b60006020601f8301049050919050565b600082821b905092915050565b600060088302610cbf7fffffffffffffffffffffffffffffffffffffffffffffffffffffffffffffffff82610c82565b610cc98683610c82565b95508019841693508086168417925050509392505050565b6000819050919050565b6000610d06610d01610cfc84610794565b610ce1565b610794565b9050919050565b6000819050919050565b610d2083610ceb565b610d34610d2c82610d0d565b848454610c8f565b825550505050565b600090565b610d49610d3c565b610d54818484610d17565b505050565b5b81811015610d7857610d6d600082610d41565b600181019050610d5a565b5050565b601f821115610dbd57610d8e81610c5d565b610d9784610c72565b81016020851015610da6578190505b610dba610db285610c72565b830182610d59565b50505b505050565b600082821c905092915050565b6000610de060001984600802610dc2565b1980831691505092915050565b6000610df98383610dcf565b9150826002028217905092915050565b610e1282610a1c565b67ffffffffffffffff811115610e2b57610e2a610805565b5b610e358254610c2c565b610e40828285610d7c565b600060209050601f831160018114610e735760008415610e61578287015190505b610e6b8582610ded565b865550610ed3565b601f198416610e8186610c5d565b60005b82811015610ea957848901518255600182019150602085019450602081019050610e84565b86831015610ec65784890151610ec2601f891682610dcf565b8355505b6001600288020188555050505b505050505050565b7f4e487b7100000000000000000000000000000000000000000000000000000000600052601160045260246000fd5b6000610f1582610794565b9150610f2083610794565b9250828203905081811115610f3857610f37610edb565b5b92915050565b7f496e76616c6964206964656120696e6465780000000000000000000000000000600082015250565b6000610f74601283610a27565b9150610f7f82610f3e565b602082019050919050565b60006020820190508181036000830152610fa381610f67565b9050919050565b7f4e487b7100000000000000000000000000000000000000000000000000000000600052603260045260246000fdfea2646970667358221220e5aec1ad2b4c6c3879f40f86ee883df60585a0a4ce590c0e2c97d4d6bed9f28664736f6c634300081c0033",
  "linkReferences": {},
  "deployedLinkReferences": {}
}